:020000040003F7
:10A0000040340020A5A20300BFA20300C1A20300A8
:10A010000000000000000000000000000000000040
:10A02000000000000000000000000000C3A20300C8
:10A030000000000000000000C5A20300C7A203004A
:10A04000C9A20300C9A20300C9A20300C9A2030058
:10A05000C9A203000000000025C10300C9A203003B
:10A06000C9A20300C9A20300C9A20300C9A2030038
:10A07000C9A20300C9A20300C9A20300C9A2030028
:10A08000C9A20300FDBA0300C9A20300C9A20300CC
:10A090001FBB0300C9A2030091C60300C9A20300AD
:10A0A000C9A20300C9A203000000000000000000D4
:10A0B00000000000000000000000000000000000A0
:10A0C00000F002F800F040F80CA030C8083824185E
:10A0D0002D18A246671EAB4654465D46AC4201D1E0
:10A0E00000F032F87E460F3E0FCCB64601263342D2
:10A0F00000D0FB1AA246AB4633431847744A00000F
:10A10000944A0000103A02D378C878C1FAD85207AE
:10A1100001D330C830C101D504680C60704700001D
:10A120000023002400250026103A01D378C1FBD873
:10A13000520700D330C100D50B6070471FB5C04631
:10A14000C0461FBD10B510BD04F0C3FC1146FFF79B
:10A15000F5FF00F0A8F904F0DBFC03B4FFF7F2FF11
:10A1600003BC04F0DFFC0000026882F30888436847
:10A1700018470000401E00BF00BF00BF00BF00BF67
:10A1800000BF00BF00BF00BF00BF00BF00BFF1D1D4
:10A190007047000070B505460C46164602E00FCC2D
:10A1A0000FC5103E102EFAD2082E02D303CC03C5E1
:10A1B000083E042E07D301CC01C5361F03E02178E9
:10A1C0002970641C6D1C761EF9D270BD2E482F4973
:10A1D000086070472E48008CC0B2012810D12C486E
:10A1E000808C0007000F0BD12948806AF0210840BD
:10A1F000402805D12648C06A084201D10120704795
:10A200000020FCE72248008CC0B2012827D120485A
:10A21000808C0007000F22D11D48806AF02108427F
:10A2200005D11B48C06A084201D101207047184877
:10A23000806AF0210840102805D11548C06A0842FC
:10A2400001D10120F2E71248806AF021084030284D
:10A2500005D10F48C06A084201D10120E6E700207D
:10A26000E4E710B5FFF7CEFF002805D009480A49FA
:10A270004860C81309498861FFF7ACFF002802D085
:10A2800001200749886010BD0024F4000020002050
:10A29000C00F00F0DFFF07C000050040006C004069
:10A2A0000006004003210C4802680A4302600B4884
:10A2B00002680A4302600A4880470A480047FEE7EE
:10A2C000FEE7FEE7FEE7FEE7FEE700000648074977
:10A2D000074A084B70470000240500405405004021
:10A2E00063A20300C1A003004028002040340020E6
:10A2F000402C0020402C00200F2000F05CF900F0E2
:10A3000048F904460D462A462146CF48FFF7F4FF98
:10A3100010B5082000F046F9092000F043F90A20A2
:10A3200000F040F90F2000F03DF910BD10B50820F5
:10A3300000F046F9092000F043F90A2000F040F946
:10A340000F2000F03DF910BD70B500BFBF490120DE
:10A3500001F065FF044600BF2546002D05D000BF73
:10A36000BBA292212846FFF7C7FF00BF00BF70BD08
:10A3700038B500BFB948BA4B052203210090002030
:10A3800001F0D1FB044600BF2546002D05D000BFDB
:10A39000AFA29D212846FFF7AFFF00BF00BF38BD29
:10A3A00030B507200021032213048C002343052429
:10A3B0002407050264198500635100BF30BD10B544
:10A3C0000446204602F012FC10BD70B586B0A54BC5
:10A3D0000FCB02AC0FC402A818DF044600BF25460D
:10A3E000002D05D000BF9AA2C4212846FFF784FFA4
:10A3F00000BF1D20400313DF044600BF2546002D8B
:10A4000005D000BF92A2C7212846FFF775FF00BF05
:10A4100000BF954B50229549082002F0F2F80546FE
:10A4200000BF2E46002E05D000BF89A2CA213046AB
:10A43000FFF762FF00BF00BF00200190019001A85C
:10A4400060DF044600BF2546002D05D000BF80A276
:10A45000D2212846FFF750FF00BF854802F00FF9D0
:10A46000044600BF2546002D05D000BF78A2D621A6
:10A470002846FFF741FF00BF06B070BD70B500BFB2
:10A480007C4A1421082001F0DFFC044600BF254669
:10A49000002D05D000BF6EA2DE212846FFF72CFF5D
:10A4A00000BF00BF70BD0026FFF732FF00BF72483B
:10A4B00040691D214903884201D1012000E00020AC
:10A4C0000546002D04D100BF61A2EB21FFF714FF68
:10A4D00000BF00BF012000070069012189028842F6
:10A4E00001D1012000E000200546002D04D100BF6D
:10A4F00057A2EC21FFF700FF00BFFFF739FFFFF77E
:10A5000023FFFFF74DFFFFF760FFFFF7B7FF0720BF
:10A510005A490969C140C907C90F002901D1012061
:10A5200000E000200646002E05D10B20400300F07D
:10A5300095FA002813D10A2000F03DF800F04EFBF8
:10A54000044600BF2546002D05D000BF40A2FD21D6
:10A550002846FFF7D1FE00BF0A2000F031F80B209B
:10A56000400300F07BFA002805D0FFF7DFFE0B2048
:10A57000400300F070FB082000F022F8092000F0F2
:10A580001FF80A2000F01CF80F2000F019F800F066
:10A5900000F8BFF34F8F3A483A49C860BFF34F8F76
:10A5A00000BFFEE703210522120707231B02D21872
:10A5B0008300D150704701218140304A916070473B
:10A5C000012181402D4AD16070477CB504460D467B
:10A5D000009401952C4A0821684601F055FC7CBD89
:10A5E00010B52A4A0021084601F04EFC10BDF8B50E
:10A5F00004460D46264600BF082D01D1012000E08B
:10A6000000200746002F05D100BF21A2FF211B31EA
:10A61000FFF772FE00BF316870688847F8BD70B5FB
:10A6200006460C4600BF002C01D1012000E00020AE
:10A630000546002D04D100BF21A29921FFF75CFE41
:10A6400000BF01F08AFF70BDEFBEADDEF02000203C
:10A650002E2E5C6D61696E2E63000000CBA5030099
:10A660000421002050EB0300E1A503004423002057
:10A67000BFA3030094230020001000100005005029
:10A680000400FA0500ED00E0EFA503001FA603009B
:10A690002E2E5C2E2E5C2E2E5C2E2E5C2E2E5C49D9
:10A6A0006E636C7564655C6170705F636F6D6D6F18
:10A6B0006E5C6170705F74696D65722E6800000079
:10A6C0002E2E5C2E2E5C2E2E5C2E2E5C2E2E5C49A9
:10A6D0006E636C7564655C73645F636F6D6D6F6EE4
:10A6E0005C736F66746465766963655F68616E64E8
:10A6F0006C65722E68000000F8B50D4614461E46C3
:10A70000A848006804280CD1022D0AD1002C08D1D9
:10A71000A5480068002804D031462046A24A1268A5
:10A720009047A048006801280FD1042D0DD1002CBE
:10A730000BD19E480068002807D002209949086084
:10A7400031462046994A1268904700BF2746002F9D
:10A7500006D000BF96A253213846FFF7CDFD00BFBB
:10A7600000BFF8BD10B5002401208E49086000200C
:10A77000954908709549088095489649086096491A
:10A78000944802F0C0FD0446002C04D00020854906
:10A790000860204610BD0B2040038F494860002010
:10A7A000F8E78149086070478049086070473EB506
:10A7B0000446082509208003844201D90C203EBDAF
:10A7C000A007800F01D00620F9E77648006801282D
:10A7D00015D12146804802F0F4FD0546002D01D038
:10A7E0002846ECE700207D4908607D480460012090
:10A7F00000900025684607C800F086F901E00825AA
:10A8000000BF00BF2846DAE7F8B50446002C01D1A6
:10A810000E20F8BDA0688107890F01D1012100E059
:10A820000021002901D11020F3E75E4800680228CA
:10A8300004D0032803D004282CD104E000BF042056
:10A840005849086000BF6068860064480068801945
:10A8500063490968884201D90C20DAE7A7685F4894
:10A860003246394603685C4802F079FD0546002D02
:10A8700001D02846CDE7594800688019574908603B
:10A880000846006856490968884201D0092500E059
:10A89000002501E0082500BF00BF2846B9E770B5D4
:10A8A000024640480068022802D003281ED103E077
:10A8B00003203C4C206000BF48480068002801D0BD
:10A8C000082070BD00210CE08C00906804593E48BF
:10A8D00005780078401C3C4E3070A800414D2C504B
:10A8E000491C50688842EFD8002301E0082300BFCC
:10A8F00000BF1846E5E770B52A48006804282AD149
:10A9000005202849086035480068354909688842AB
:10A9100001D008241EE00022314801680B204003CA
:10A9200001F0F0FD2949088000BF2E480578014656
:10A93000497809020D4300BF23480078002805D05C
:10A9400022480088A84201D00B2070BD062015497E
:10A950000860002401E0082400BF00BF2046F4E79F
:10A960003EB51048006806280ED100200090174818
:10A970000088694688801A4800680290684607C8BF
:10A9800000F0C2F8002401E0082400BF00BF204608
:10A990003EBD0EB504200090684607C800F0B4F82C
:10A9A0000EBD0000042000201C20002020200020DC
:10A9B0002E2E5C6466755F73696E676C655F62619D
:10A9C0006E6B2E63000000000C2000200E20002083
:10A9D000F9A60300242500201420002010200020C8
:10A9E00008200020E4240020F8B50D461446069FF8
:10A9F000B6480068012804D1022D02D10220B349D3
:10AA0000086000BF2646002E06D000BFB0A2342149
:10AA10003046FFF771FC00BF00BFF8BD70B500BF46
:10AA200040DF044600BF2546002D06D000BFA8A287
:10AA300046212846FFF760FC00BF00BF01F0C5FAC1
:10AA4000A2480068022807D0A0480068032803D065
:10AA50009E480068042800D170BDE1E7F8B50446BF
:10AA600000250B204003201A04D009214903401A75
:10AA70001ED11EE0684600F041F9009800680128E8
:10AA800015D1002600988088002807D00098002261
:10AA9000C1680B20400301F035FD06460098808810
:10AAA000B04201D1012000E00020054600BF01E0D6
:10AAB00000BF00BF00BF2846F8BD70B50546102195
:10AAC000874802F0B4FB044600BF2646002E06D09D
:10AAD00000BF7FA285213046FFF70EFC00BF00BFFC
:10AAE0000023102229467E4802F050FA044600BF97
:10AAF0002646002E06D000BF75A28B213046FFF7F8
:10AB0000FBFB00BF00BF70BD37B582B001A800F0ED
:10AB1000F5F80298002810D168468089714988802C
:10AB20000498C86001200860FF2088600120674900
:10AB300008606C48FFF7C1FF4EE00298032812D16D
:10AB400002F0A3FF044600BF2546002D06D000BF3B
:10AB50005FA2A4212846FFF7CFFB00BF00BF032060
:10AB60005A49086038E0029801280CD100205D495C
:10AB70008880C860FE200860019880688860084668
:10AB8000FFF79BFF28E0029802280FD10198006888
:10AB9000544908600198808888800198C068C8601E
:10ABA000FE2088600846FFF788FF15E00298042819
:10ABB00012D102F06AFF044600BF2546002D06D0E0
:10ABC00000BF43A2BE212846FFF796FB00BF00BF8F
:10ABD00004203E49086000BF05B030BD3EB50024EA
:10ABE00041480090102001900120029002F0A1F84D
:10ABF0000446002C01D020463EBD3949684602F08B
:10AC0000CFF80446002C01D02046F5E7FFF7AAFD57
:10AC10000446002C01D02046EEE703F073F9044609
:10AC2000FFF7FCFE2046E7E70020304A11680FE0FE
:10AC3000012282400A4209D000BFC306DB0E012276
:10AC40009A402A4B80331A6000BF00BF421CD0B22A
:10AC50002028EDDB704770B5064611DF044600BFC3
:10AC60002546002D07D000BF19A2FF210A31284632
:10AC7000FFF742FB00BF00BFFFF7D6FF0B204003EA
:10AC800013DF044600BF2546002D07D000BF10A2E9
:10AC9000FF2114312846FFF72FFB00BF00BF0B2018
:10ACA000400300F025F870BD1FB5044600231022B4
:10ACB0000B49684602F042FA009820606846808896
:10ACC000A0800398E0600298A0601FBD2C200020A7
:10ACD0002E2E5C626F6F746C6F616465722E630000
:10ACE0002420002030250020E9A9030000E100E035
:10ACF00010B504462046FFF737FA10BD0149016040
:10AD00007047000000FC030002460A70FF200002AA
:10AD10001040000A4870FF2000041040000C8870AA
:10AD2000100EC8700420704710B58EB004461C2168
:10AD300007A803F01CFE6846007F04218843011D1C
:10AD400068460177002008900A900B900C900D90B7
:10AD5000217968468171FE4981800020009000BF02
:10AD60006846007801090901684601700078F02101
:10AD700088436946087000BF00BF684640780109F3
:10AD80000901491C684641704078F0218843103021
:10AD90006946487000BF6846807806218843811C58
:10ADA0006846817080780821884301466846817032
:10ADB0008078102188430146684681708078410878
:10ADC0004900491C68468170142102A803F0CFFD98
:10ADD00001A802906846039000210182418214215B
:10ADE0008182002006906088A31D02AA07A9A2DF25
:10ADF0000EB010BD10B58EB004461C2107A803F09C
:10AE0000B6FD6846007F08218843411868460177EF
:10AE1000007F102188434118684601770020089080
:10AE20000A900B900C900D90217968468171C84969
:10AE3000491E81800020009000BF6846007801090B
:10AE40000901684601700078F0218843694608705E
:10AE500000BF00BF6846407801090901491C6846E7
:10AE600041704078F021884310306946487000BF37
:10AE70006846807806218843811C68468170807806
:10AE800008218843014668468170807810218843F4
:10AE9000411868468170807841084900491C68461D
:10AEA0008170142102A803F062FD01A80290684697
:10AEB00003900021018241821721818200200690A7
:10AEC000608823460E3302AA07A9A2DF0EB010BD88
:10AED0008A8802807047FEB5044602200190608A8D
:10AEE0006B4601AA0021A5DF0546002D07D0606A48
:10AEF000002802D02846616A88470020FEBD6E46C1
:10AF0000304600F010FA0746F807C00F00BFF5E71B
:10AF100070B586B004460D461646002C02D10E20B0
:10AF200006B070BD20888B49884203D08A480078DB
:10AF3000002801D10820F3E7002101911021684683
:10AF40008288501C83B28548019381546846828868
:10AF5000501C83B281480193855468468288501CF6
:10AF600083B27E480193865400200290039004909F
:10AF70000590E1896846018101218172002181816A
:10AF800001A8049075480590208802A9A6DFC7E7AC
:10AF900070B588B004460D46022069460874204604
:10AFA000FFF799FF002808D1FF20FE30694688820C
:10AFB000208804A9A8DF08B070BD002069468882F7
:10AFC000208804A9A8DF0646002E01D03046F2E70B
:10AFD00000BFA87E030003F0ACFD0960061A21281B
:10AFE0002F36593D600000200190288B022803DA9B
:10AFF00000206946087205E001206946087228466B
:10B000001B30039001A92046226A90474BE00120A3
:10B01000019001A92046226A904744E00220019055
:10B0200001A92046226A90473DE00320019001A932
:10B030002046226A904736E00420019001A920466C
:10B04000226A90472FE00520019001A92046226A3C
:10B05000904728E0288B032805DA032208212046A0
:10B06000FFF756FFA7E728461B3000F05CF969465A
:10B0700008810889002802D10720019001E00620FC
:10B08000019001A92046226A90470CE00920019016
:10B0900001A92046226A904705E0A97E03222046A6
:10B0A000FFF736FF87E700BF002084E7F8B50446C6
:10B0B0000E46B51D2878022811D16888E18988429A
:10B0C0000DD1A91C2046FFF763FF0746002F05D0CE
:10B0D000606A002802D03846616A884700BFF8BD20
:10B0E0003EB505460C46E088E98888420BD1082029
:10B0F0000090A07F694608712046203002902846C3
:10B100002A6A904700BF3EBD0022D24302807047AA
:10B1100070B586B004460D46002C04D0002D02D038
:10B120002868002802D10E2006B070BD0020C04360
:10B1300020800B4B0FCB01AE0FC60548801E694621
:10B140008882163101A863DF0646002E0CD009E084
:10B1500032150000FFFF00003020002031200020C9
:10B1600060EB03003046DFE7A21C05A90120A0DF49
:10B170000646002E01D03046D6E76846807D207115
:10B180002046FFF7D1FD0646002E01D03046CBE722
:10B190002046FFF72FFE0646002E01D03046C3E7BB
:10B1A000286820626868002801D068686062012011
:10B1B000604908700020B7E770B505460C46002DC1
:10B1C00001D0002C00D170BD286A00281FD0208833
:10B1D000102806D011280ED0502807D0512814D19D
:10B1E0000EE021462846FFF773FE0FE02146284671
:10B1F000FFF776FF0AE021462846FFF785FF05E0C6
:10B2000021462846FFF752FF00E000BF00BF00BF05
:10B21000D9E730B585B004460D46002C02D10E208A
:10B2200005B030BD20884449884203D041480078A9
:10B23000002801D10820F3E7002100911021684681
:10B240000288501C83B23D48009381540721684610
:10B250000288501C83B2394800938154012168460A
:10B260000288501C83B235480093815402466846D8
:10B27000008811182846FFF747FD014668460088F8
:10B28000081881B200910020019002900390049070
:10B29000E18968468180012181710021018103904B
:10B2A00026480490208801A9A6DFB9E730B585B00B
:10B2B00004460D46002C02D10E2005B030BD20887A
:10B2C0001D49884203D01B480078002801D108207E
:10B2D000F3E700210091112168460288501C83B2D7
:10B2E0001648009381540246684600881118284683
:10B2F000FFF70AFD014668460088081881B20091F0
:10B3000000200190029003900490E18968468180BA
:10B310000121817100210181039008480490208857
:10B3200001A9A6DFC9E7014608784A78120210434E
:10B330007047000030200020FFFF00003120002077
:10B3400010B5002819DAF74A03071B0F083B9B08C2
:10B350009B00D2588307DC0EFF23A3409A438B0740
:10B360001B0E8407E40EA3401A43EE4B0407240F80
:10B37000083CA408A4001A5118E0EB4A03231B025E
:10B38000D21883089B00D2588307DC0EFF23A3400A
:10B390009A438B071B0E8407E40EA3401A43E24B2B
:10B3A000032424021B198408A4001A5110BD10B5EF
:10B3B0000446DE48846003211120FFF7C1FF10BD61
:10B3C00010B501200004DA494860D9494039486085
:10B3D000112000F0E7FC112000F0D6FC0120D54937
:10B3E00008602F20FEF7C6FE0120D349087010BD6B
:10B3F00010B5112001218140CB4A8032116000BF7D
:10B4000001200004CA498860C94940398860012088
:10B41000C84948602F20FEF7ADFE0120C54988606D
:10B420000020C64908602F20FEF7A4FE0020C24974
:10B43000087010BDF0B5024628205043C04B1B6871
:10B44000C118C0480068401C02D1BE48026057E0E5
:10B45000BC488B68006828246043B94C24680019F4
:10B460008068834217D8B748006828235843B44BF4
:10B470001B68C01880688B68C31AB248006828240B
:10B480006043AF4C246800198360AE48006848628E
:10B49000AC48026034E08B68AA4D2C6828680DE047
:10B4A00028254543A64E3668AD19AD685B1B04469A
:10B4B00028254543A24E3668AD19686A451C07D059
:10B4C000282545439E4E3668AD19AD689D42E7D3A9
:10B4D000451C0CD028254543994E3668AD19AD68FA
:10B4E000EE1A28254543964F3F68ED19AE608B60F4
:10B4F000486228256543924E3668AD196A6200BFDE
:10B50000F0BDF8B506468F4805682C4609E0B44200
:10B5100000D108E025462820604389490968401881
:10B52000446A601CF3D100BF601C00D1F8BDA54285
:10B530000FD1844800682821484381490968401890
:10B54000406A8049086008460068401C01D1FFF746
:10B550004FFF282060437A490968401887682820EF
:10B560006043774909684018416A28206843744A53
:10B5700012688018416228206843714909684018A0
:10B58000446A601C0CD0282060436D49096840184B
:10B590008068C11928206043694A12688018816058
:10B5A00000BFC3E710B5112000F0F5FB10BD10B5CA
:10B5B000142000F0F0FB10BD70B50446624800682E
:10B5C000002813D0604A216AE06912689047054656
:10B5D00000BF2E46002E07D000BF5CA2FF216431C1
:10B5E0003046FEF789FE00BF00BF02E0E169206A35
:10B5F000884770BDF8B553480068401C39D0002713
:10B6000000F002FC04464D480168204600F0FFFBB4
:10B6100006464C48056811E02820684348490968F7
:10B620004418A068B04200D90AE0A068361AA068A1
:10B63000C719656A2046FFF7BFFF00BF681CEBD142
:10B6400000BF4E4800784E490978884209D14C48DD
:10B650000078401CC0B24A490870022801D100207D
:10B66000087047480078800046490F50FFF79FFF59
:10B6700000BFF8BD014641480078414A1278904227
:10B680001DD03E480078401C3C4A1070104600789F
:10B69000022801D100201070384800788000394A13
:10B6A00010580860254A086812688018234A1060FC
:10B6B000104600680002000A106001207047002058
:10B6C000086000BFFAE7FEB51E48006801902E48EA
:10B6D0000078009076E00098C0002C490968441872
:10B6E00025786BE01820684361680F18681CC5B2A4
:10B6F000A078A84200D100253868022802D003288B
:10B7000059D145E02821786848430D490968461811
:10B71000307E002804D07868FFF7F3FE00203076F2
:10B720004AE000001CED00E000E100E000150140EF
:10B7300040130140001001405C2000204820002000
:10B740003820002044200020582000202E2E5C2E7F
:10B750002E5C2E2E5C2E2E5C2E2E5C536F7572632B
:10B76000655C6170705F636F6D6D6F6E5C61707052
:10B770005F74696D65722E63000000005420002024
:10B78000552000204C2000203D200020402000209B
:10B790000CE0FE49096828225143FD4A12688818C6
:10B7A00000210176F94A416A116000BFF74800683C
:10B7B000401CEED100E000BF00BF00BF6078A8428F
:10B7C00090D100BF0098411EC9B20091002882D1DB
:10B7D000EE4801680198814201D00120FEBD0020A1
:10B7E000FCE7F0B50346002426E0E84E366828273B
:10B7F0007E43E74F3F68F01986689E4203D986680A
:10B80000F61A86601CE086689B1B86683419002641
:10B8100086600676DD4E3568DC4F466A3E604669D6
:10B82000002E08D00E193602360AC6604669066137
:10B8300016684662156000BFD4480068401CD4D129
:10B8400000BFF0BDFEB50746D04800680290D14861
:10B850000078019069E00198C000CF490968451857
:10B860005CE0781C07D03E4628207043C849096830
:10B870004418676A23E02978182359436A685018E6
:10B880002978491C29702978AA78914201D1002190
:10B890002970466828217143BD4A12688C180168D6
:10B8A000012902D1217E002900D037E08168E160C2
:10B8B000C1682161016961614169216200BFB749C5
:10B8C000E0680968401A0002000AB549884208D2B7
:10B8D000B249E068096800F09AFA21694018A0604E
:10B8E00011E0AE48E168006800F091FA009021692B
:10B8F0000098814204D921690098081AA06001E0EB
:10B900000020A06000BF0020E060206101202076C0
:10B91000801E60623046FFF78DFD00BF781CA0D10D
:10B920002878697888429CD100BF0198411EC9B22D
:10B93000019100288FD1954801680298814201D079
:10B940000120FEBD0020FCE7FEB590480068401CC9
:10B9500034D08E480068282148438D490968401832
:10B96000856800F051FA01908C48046821460198DE
:10B9700000F04DFAC61C8B480078002801D1FFF773
:10B980001FFDAE4201D2284600E0304604192402D1
:10B99000240A20468449086000BF00F035FA009070
:10B9A0000199009800F033FAC71C2046019900F075
:10B9B0002EFA874201D9FFF7F5FD01E0FFF718FDE8
:10B9C000FEBDFEB50020C0430190744804686F4876
:10B9D00007686846FFF74EFE0546FFF774FE064609
:10B9E000002D05D001AA21460098FFF7FAFE012696
:10B9F0000198FFF727FF002800D00126002E02D073
:10BA00003846FFF7A1FFFEBD4170704770B5024692
:10BA10000B465078411C9078884200D10021107864
:10BA2000884201D1002070BD1960507818267043FB
:10BA300055682C182046F6E7FFB581B005460E463E
:10BA40001746E900544A126888186946FFF7DEFF76
:10BA50000446002C02D1042005B0F0BD0120206076
:10BA6000666000F0D1F9A060E760049820610A9850
:10BA70006061E900484A126888180099FFF7C4FF1E
:10BA8000FFF795FD0020E7E7F8B504460E46E10014
:10BA9000414A126888186946FFF7B8FF0546002D2D
:10BAA00001D10420F8BD022028606E60E1003A4A0E
:10BAB000126888180099FFF7A7FFFFF778FD0020AC
:10BAC000F0E738B50446E100334A12688818694641
:10BAD000FFF79CFF0546002D01D1042038BD03204F
:10BAE0002860001F6860E1002B4A126888180099DE
:10BAF000FFF78AFFFFF75BFD0020EFE710B500209E
:10BB00002A4908600021294841608160C160002005
:10BB10002649403908604860FFF76CFD10BD10B53C
:10BB2000FFF74FFF10BDFFB581B00E4617461C460C
:10BB300020468107890F01D1012100E00021002961
:10BB400002D1072005B0F0BD002C01D10720F9E794
:10BB5000FFF74EFC16490A980860164806700C4814
:10BB6000046000250CE0002128206843084A126880
:10BB7000115028206843064A1268801801766D1C0F
:10BB8000B542F0DB28207043041915E04420002062
:10BB9000382000203D2000204020002048200020A8
:10BBA000FFFF7F005C200020401501404011014054
:10BBB000582000203C200020032097490870974817
:10BBC0000460183400250CE0E900944A12688818D3
:10BBD00000210170417087704460182179430C196D
:10BBE0006D1C032DF0DB0020C0438D490860002050
:10BBF0008C4908708C490870142000F0D3F8032198
:10BC00001420FFF79DFB142000F0BEF80198FFF709
:10BC1000CEFB00F0F9F885490860002092E770B586
:10BC200003460C4682480068002801D1082070BDF8
:10BC3000002A01D10720FAE7002B01D10720F6E7FF
:10BC400000211CE028204843794D2D682858002801
:10BC500014D1012528204843754E366835502820D8
:10BC60004843734D2D684019446028204843704D67
:10BC70002D684019C26119600020D8E7491C6D4841
:10BC800000788142DEDB0420D1E710B500F092F8A5
:10BC9000012802D0032804D101E0002403E001249C
:10BCA00001E0022400BF00BF204610BDFEB50446DF
:10BCB0000D4616465E480068002801D10820FEBDEA
:10BCC0005C480078844201D2052D01D20720F6E7B6
:10BCD00028206043564909680858012801D00820E7
:10BCE000EDE7282060435249096840184068012860
:10BCF00001D1284600E000200746FFF7C6FF3B467B
:10BD00002A46214600960190FFF796FED7E770B5C8
:10BD1000044647480068002801D1082070BD454806
:10BD20000078844201D30720F8E728206043404987
:10BD300009680858012801D00820EFE7FFF7A5FFA0
:10BD400005462146FFF7A0FEE8E710B53848006831
:10BD5000002801D1082010BDFFF797FF0446FFF728
:10BD6000B0FEF8E710B5044600F04EF82060002061
:10BD700010BD70B505460E4614463146284600F003
:10BD800046F82060002070BDC206D20E012191400D
:10BD9000294A11607047C206D20E01219140274AFC
:10BDA00011607047C206D20E01219140234A8032B1
:10BDB0001160704710B522484068C105C90D0029BF
:10BDC00020D00A46103A104600280DDA1C4B1C33CE
:10BDD0000407240F083CA408A4001B598407E40EA0
:10BDE000E3401B069B0F0BE0134B032424021B199B
:10BDF0008408A4001B598407E40EE3401B069B0F34
:10BE0000D8B210BD0420FCE70E48406870470246D7
:10BE1000501A0002000A70473D20002040200020F8
:10BE200044200020542000205520002048200020DD
:10BE3000382000203C20002000E100E000E200E08B
:10BE400000ED00E00015014030B50346481CC00479
:10BE5000040C10468507AD0F01D1012500E0002537
:10BE6000002D01D1072030BD794802601019794DAD
:10BE700028600020784D2870784D2870784803801D
:10BE8000784801800020EEE7F7B584B00C4674488E
:10BE9000008884426BDC744D0020039000F0A4F80D
:10BEA00002900298012814D003A82EDF0746022F23
:10BEB00001D172B60CE000BF0197019F002F06D0A0
:10BEC00000BF6AA259210198FEF716FA00BF00BF11
:10BED00000BF6148007800F0B1F8604909788842F5
:10BEE00006D05D480578007800F0A8F85A49087037
:10BEF0000298012814D062B66846007B2FDF0746FF
:10BF0000022F0CD000BF0197019F002F06D000BF69
:10BF100056A261210198FEF7EFF900BF00BF00BFF4
:10BF20005148854221D0E900494A0698126850508C
:10BF30000498002811D0002C0FDD49490988694375
:10BF4000444A126888182246049902F0B1FCE800BD
:10BF50003F4909684018848005E00020E9003C4A18
:10BF6000126889188880002600E0042600E009266F
:10BF7000304607B0F0BDF8B505460E461746052019
:10BF80000090354800783549097888421BD03348FD
:10BF90000478007800F052F8304908703048008882
:10BFA00060432C49096840182860E0002849096866
:10BFB000401880883080E0002549096808583860BA
:10BFC0000020009000BF0098F8BD0EB504E0684660
:10BFD0008188009A029890476A4601A902A8FFF753
:10BFE000CAFF0028F3D00EBD10B52D484068C1052A
:10BFF000C90D002920D00A46103A104600280DDA53
:10C00000274B1C330407240F083CA408A4001B5929
:10C010008407E40EE3401B069B0F0BE0214B032437
:10C0200024021B198408A4001B598407E40EE34072
:10C030001B069B0FD8B210BD0420FCE7014609483F
:10C040000088814201DA481C00E00020C0B270473D
:10C05000602000206420002069200020682000204B
:10C060006A2000206C200020FFFF00002E2E5C2E96
:10C070002E5C2E2E5C2E2E5C2E2E5C536F75726302
:10C08000655C6170705F636F6D6D6F6E5C61707029
:10C090005F7363686564756C65722E6300000000F1
:10C0A00000ED00E000E100E0F0B502460C460020A3
:10C0B00035E001238340194623460B422ED0D56834
:10C0C0000D4205D101235B04D5680D43D56004E022
:10C0D00003231B04D5688D43D56005252D0707264E
:10C0E0003602AD198600AD5903263604B543052640
:10C0F000360707273F02F6198700F55105252D075A
:10C1000007263602AD198600AD591D4305263607B0
:10C1100007273F02F6198700F55100BF401C202871
:10C12000C7D3F0BDF0B585B0EC4805690020EC49F7
:10C13000C86300263DE014207043EA4909684418AA
:10C140000120B040E8490968084230D0E068C043A7
:10C15000684021680840074639462046FFF7A4FF9B
:10C16000DE48006968400390039800280ED00398C9
:10C170000543E068C04368402168084000902046BD
:10C180000099FFF791FF0098074300BFA068A843FC
:10C190003840019060682840384002900199029828
:10C1A000084303D0226901990298904700BF701C90
:10C1B000C6B2CE4800788642BDDB05B0F0BD10B5F2
:10C1C0000146002028E014224A43C64B1B689A58B7
:10C1D000012383401A421ED00522120707231B02A7
:10C1E000D2188300D25803231B049A4305231B074C
:10C1F000072424021B1984001A5105221207072361
:10C200001B02D2188300D25805231B0707242402DF
:10C210001B1984001A51401C2028D4D310BD70B5BE
:10C2200005460C46002C01D1072070BD2046810731
:10C23000890F01D1012100E00021002901D107204F
:10C24000F3E7A8480460AA4805700020A7490870D1
:10C25000A5490860A6480078142250430146A14829
:10C26000006802F084FB0020C043A24988600620D9
:10C2700001218140A04A116000BF012100F0F7F8C0
:10C280000620012181409D4A116000BF0020CCE7BB
:10C29000F8B504460D4616461F4692480068002829
:10C2A00001D10820F8BD002F01D10720FAE78F48FF
:10C2B00000788F490978884201DB0420F2E728469C
:10C2C00030438A49097814225143864A12685050F3
:10C2D000864800781421484382490968401845601F
:10C2E00082480078142148437E49096840188660D6
:10C2F0007E480078142148437A490968401807614C
:10C300007A480078207079480078401C7749087096
:10C310002078FFF754FF0020C4E7F0B502467148CB
:10C320000068002801D10820F0BD704800788242E2
:10C3300001DB0720F8E70020694BD86367480469F0
:10C3400069480068002802D158066A4B58600120ED
:10C350009040654B1B681843634B18600023142002
:10C360005043604D2D684019C360002140E0012317
:10C370008B401846142353435A4D2D68EB58034203
:10C3800035D02546054202D003231B040EE00123CD
:10C390005B0414255543534E3668AD19ED680543CB
:10C3A000142656434F4F3F68F619F56005252D07B3
:10C3B00007263602AD198E00AD5903263604B54363
:10C3C0000526360707273F02F6198F00F551052588
:10C3D0002D0707263602AD198E00AD591D430526DF
:10C3E000360707273F02F6198F00F55100BF491C99
:10C3F0002029BCD3002097E710B5044639480068CF
:10C40000002801D1082010BD38480078844201DBA3
:10C410000720F8E72046FFF7D2FE0120A04032496E
:10C4200009688143304801600068002803D1012079
:10C43000C007304988600020E5E710B5024629486A
:10C440000068002801D1082010BD284800788242E9
:10C4500001DB0720F8E714205043224C246803191D
:10C460001E4800691C68204008600020ECE710B5F9
:10C47000002819DA224A03071B0F083B9B089B0080
:10C48000D2588307DC0EFF23A3409A438B071B0E71
:10C490008407E40EA3401A43194B0407240F083CF9
:10C4A000A408A4001A5118E0144A03231B02D2184E
:10C4B00083089B00D2588307DC0EFF23A3409A43D6
:10C4C0008B071B0E8407E40EA3401A430B4B032477
:10C4D00024021B198408A4001A5110BD0005005045
:10C4E000406100407020002074200020792000204E
:10C4F000782000200063004080E200E000E100E0DE
:10C500001CED00E070B503460C46002A01D10D4D2C
:10C5100000E015882846002110E005120602354388
:10C52000A8B25D5C684005062D0F684005034540D4
:10C53000A8B205062D0D6D006840491CA142ECD340
:10C5400070BD0000FFFF000070B506460C461546A2
:10C5500029462046FDF7D5FE70BDF8B5594800784C
:10C56000002800D1F8BD58480068002801D10120FA
:10C5700000E00020054655480068002801D1012050
:10C5800000E00020064600BF002D14D1684651DFB0
:10C590000446052C01D101250CE0002C06D000BF7B
:10C5A0004BA269212046FDF7A7FE03E0464900980B
:10C5B0000968884700BF002E1AD1534800880090B0
:10C5C00069465248006861DF0446052C01D1012606
:10C5D0000DE0002C06D000BF3DA280212046FDF7D3
:10C5E0008BFE04E04948006838490968884700BF65
:10C5F000002D02D0002E00D000E0C5E700BF00BF34
:10C60000B0E7FFB581B00C4616461F46002C02D19C
:10C61000072005B0F0BD20468107890F01D1012117
:10C6200000E00021002901D10720F2E7374804602B
:10C6300035480680364807603649019810DF0546C0
:10C64000002D01D02846E4E701201E49087016207D
:10C6500026DFDEE710B511DF0446002C01D00120F3
:10C6600000E0002017490870204610BD014600294F
:10C6700001D10E207047154801600020FAE70146FD
:10C68000002901D10E2070470F4801600020FAE711
:10C6900070B51F480068002811D01D480068804709
:10C6A000044600BF2546002D07D000BF08A2FF2189
:10C6B00033312846FDF720FE00BF00BF01E0FFF741
:10C6C0004CFF70BD7C200020902000208C2000209A
:10C6D0002E2E5C2E2E5C2E2E5C2E2E5C2E2E5C536F
:10C6E0006F757263655C73645F636F6D6D6F6E5CB5
:10C6F000736F66746465766963655F68616E646CA8
:10C7000065722E6300000000882000208420002035
:10C710008020002049C50300002318214143FE4A20
:10C7200053541821414389184B6001231821414378
:10C730008918CB6000231821414389180B61182107
:10C74000414389184B611821414389188B60704718
:10C7500010B50020F1490860F1490860EE49091F51
:10C76000087048708870002403E02046FFF7D4FF6B
:10C77000641C0A2CF9D310BDFFB581B004460F46E6
:10C7800015460326E648006800280BD1002D06D187
:10C790000498002803D10220E149086002E001204A
:10C7A000DF490860DE480068030002F0C2F907BEF6
:10C7B00005223F658AA6BE000120000740690123CB
:10C7C0001B071B699BB258430090012000070069BA
:10C7D0000004820C01200007006980B27843014602
:10C7E000009821DF0646002E02D10220CC490860C5
:10C7F0009CE0384620DF0646002E16D1002D11D1D0
:10C80000049800280AD12078042803D10720C449BD
:10C8100008600AE00520C249086006E00420C0491B
:10C82000086002E00320BE4908607FE00122120791
:10C83000526901231B071B699BB25A43114601220F
:10C840001207126992B27A4310462A4621DF064641
:10C85000002E10D1049800280AD12078042803D192
:10C860000620AF49086006E00520AD49086002E0F7
:10C870000420AB49086059E00122120752690123E4
:10C880001B071B699BB25A43AB00D2186368D118CF
:10C8900001221207126992B27A43AB00D218636880
:10C8A000D018049A21DF0646002E09D120780428EA
:10C8B00003D106209A49086002E0052098490860E3
:10C8C00034E001210907096989B27943AB00C8182E
:10C8D00061688A086169009121DF0646002E0BD14C
:10C8E000002D06D10498002803D107208C49086048
:10C8F00002E006208A49086018E001221207526906
:10C9000001231B071B699BB25A43104601221207E1
:10C91000126991B202F02DF8009020DF0646002E39
:10C9200002D107207E49086000E000BF00BF30460A
:10C9300005B0F0BDF0B585B00F277748001F00782F
:10C94000182148437449441825692078022804D0E6
:10C95000042823D0052874D174E0606903906F48DF
:10C96000006886026068801B049003988019039019
:10C97000A06880194519012189020498884206D2CD
:10C98000049882082846039921DF074605E0FF2224
:10C9900001322846039921DF07467BE01421E06835
:10C9A000484360494018806804901421E068484377
:10C9B0005C494018C06803901421E0684843594915
:10C9C0004018406802900298A84205D10399049843
:10C9D00048436168884202D0E06802280DD10120F6
:10C9E0000007006981B2284601F0C3FF4B4909687E
:10C9F0004618304620DF074622E001200007006984
:10CA000081B2284601F0B5FF064601200007006903
:10CA100080B27043281A8008019001200007006945
:10CA200080B2711C484361684919401A800800901F
:10CA300031462046009B019AFFF79EFE074600BF45
:10CA400028E026E001200007006981B2284601F0B5
:10CA500090FF0646A068411901200007006980B2D6
:10CA60007043081A80080490A06840196168421851
:10CA700001200007006980B2711C4843801A8008B9
:10CA8000039031462046039B049AFFF775FE074644
:10CA900000E000BF00BF002F03D101201E49091F85
:10CAA0008870384605B0F0BDFFB581B00646174620
:10CAB00000241948001F40780A2841D01648001F5A
:10CAC00000781549091F49784018C4B20A2C02DBC6
:10CAD00020460A38C4B2182060430F490E5418206B
:10CAE000604340184761182060434118029805C808
:10CAF0000A61C86018206043074A801804994160A1
:10CB00001820604380180A9981600025101F8078E2
:10CB100000280FD108E0000044250020A0200020BC
:10CB2000A420002034260020FFF704FF0546112D25
:10CB300000D10025FE484078401CFD49487000E0C7
:10CB40000425284605B0F0BDF8B50546F84800783C
:10CB500018214843F649091D0E5C081F007818216A
:10CB60004843F349091D4018C068022802D1F14822
:10CB700004680BE0EE48007818214843EC49091D91
:10CB80004018C06814214843EB490C58E848007825
:10CB900018214843E649091D40184068091F0090C4
:10CBA000097818225143E24A121D89184B69111F56
:10CBB000097818225143DE4A121D891808460C30A4
:10CBC0002A463146A047F8BD10B50024D848407821
:10CBD000002809DDFFF7AEFE0446002C04D0112C1E
:10CBE00002D02046FFF7B0FF204610BDFEB5054637
:10CBF0000026CF48807801287ED10020CC4988705B
:10CC0000CE480068082811D1022D03D10020CB495D
:10CC1000086002E00020CA490870FFF7D5FF064609
:10CC2000002E02D03046FFF78FFFFEBD022D02D04E
:10CC3000032D79D174E0BE48007818214843BC49DF
:10CC4000091D4418BF480068401CBE490860207890
:10CC5000022807D10846006880026168884201D333
:10CC6000012000E0002007462078052805D1B348C0
:10CC70000068072801D1012000E000200290207800
:10CC8000042805D1AD480068072801D1012000E043
:10CC900000200190207804280BD1AA480068800267
:10CCA0006168884205D3A5480068002801D10120A9
:10CCB00000E0002000900298002807D10198002889
:10CCC00004D10098002801D1002F1FD000209B49DB
:10CCD00008603046FFF738FF95490878FFF71CFDDC
:10CCE00000209849086092484078401E904948705A
:10CCF00008460078401C00E019E0087008460078FB
:10CD00000A2803DB084600780A380870FFF75CFF42
:10CD10000646002E02D03046FFF716FF05E003E07E
:10CD20000D20FFF711FF00E000BF00BF00BF00BFF4
:10CD30007BE710B5FFF70CFD002083490860012058
:10CD400000074069401E01210907096989B248436B
:10CD50007E49086000207B49086000BF11E0002286
:10CD600014214143744B5A5014214143C9188A601D
:10CD700014214143C9180A6114214143C918CA60EA
:10CD8000401C0028EBD000206A4908608880012000
:10CD90006B4908700020694908600024204610BDD6
:10CDA00070B5024600BF66480078002801D108200F
:10CDB00070BD00BF002A01D10E20F9E7002901D182
:10CDC0000E20F5E71068002801D10E20F0E70125BC
:10CDD0002D0750682D69ADB2A84202D850681028BE
:10CDE00001D20720E4E7906800280FD055689068CA
:10CDF0006843564D2D6845190120000740690126FA
:10CE000036073669B6B27043854201D90720CFE7AD
:10CE100010798007800F01D00720C9E74A480068D1
:10CE2000012801D10420C3E747480068086047484B
:10CE30000068486044484D680068142670433E4EC0
:10CE400080194560404815680068142670433A4EC2
:10CE500035503D485568006814267043364E801999
:10CE6000856039489568006814267043324E8019F1
:10CE7000C5600024956853686B4300BF601C84B292
:10CE800001200007006980B2984205D20120000706
:10CE9000006980B21B1A00E000230120000700692E
:10CEA00080B22A4D2D684019284D286001200007C6
:10CEB000006980B29842E1D923480068142568438C
:10CEC0001D4D4019046120480068401C1E4D28601B
:10CED00000206DE73CB5034600BF194800780028E4
:10CEE00001D108203CBD00BF002B01D10E20F9E785
:10CEF000002A01D10E20F5E71868002806D1142475
:10CF0000186860430C4C2058002801D10720E9E73D
:10CF10005C68186801940090019C142518686843A7
:10CF2000054D4019806848432018019014240FE0F3
:10CF300040250020A820002034260020A420002026
:10CF400094200020A0200020982000209C20002079
:10CF5000009860432C460019C0681425009C6C435F
:10CF6000F74D6419A46860431425009C6C43F44D8C
:10CF7000641964680019019CA04201D80720B1E738
:10CF8000019C0098546010600020ABE7F8B504469F
:10CF90000E4615461F4600BFEA480078002801D11A
:10CFA0000820F8BD00BF002E01D10E20F9E7002CAB
:10CFB00001D10E20F5E72068002806D11421206851
:10CFC0004843DF490858002801D10720E9E7142128
:10CFD00020684843DA494018C06814222168514348
:10CFE000D74A891889684843142221685143D44A92
:10CFF0008918496840186168884201D80720D0E73D
:10D00000002D07D0142120684843CD49401880687E
:10D01000A84201D20720C4E7E9191422206850432E
:10D02000C74A80188068814201D90720B9E7304695
:10D0300000F0EAF9002804D0384600F0E5F90028AD
:10D0400001D11020ADE7606800F0DEF9002801D1C1
:10D050001020A6E72B463246214602200097FFF714
:10D0600023FD9EE7F8B504460E4615461F4600BF51
:10D07000B4480078002801D10820F8BD00BF002E78
:10D0800001D10E20F9E7002C01D10E20F5E7206830
:10D09000002806D1142120684843A94908580028CF
:10D0A00001D10720E9E7142120684843A44940182A
:10D0B000C068142221685143A14A891889684843ED
:10D0C0001422216851439E4A8918496840186168B2
:10D0D000884201D80720D0E7002D07D0142120680E
:10D0E0004843974940188068A84201D20720C4E706
:10D0F000E919142220685043914A801880688142BF
:10D1000001D90720B9E7304600F07EF9002804D0A5
:10D11000384600F079F9002801D11020ADE76068A9
:10D1200000F072F9002801D11020A6E72B46324604
:10D13000214605200097FFF7B7FC9EE7FFB581B0B9
:10D140000C4615461E4600BF7E480078002802D1D6
:10D15000082005B0F0BD00BF002C01D10E20F8E77B
:10D160000198002801D10E20F3E72068002806D19D
:10D1700014212068484372490858002801D107202B
:10D18000E7E71421206848436D494018C06814221D
:10D19000216851436A4A89188968484314222168E2
:10D1A0005143674A8918496840186168884201D824
:10D1B0000720CEE7002D07D014212068484360499E
:10D1C00040188068A84201D20720C2E7A91914229A
:10D1D000206850435A4A80188068814201D907204C
:10D1E000B7E7019800F010F9002804D0304600F0AD
:10D1F0000BF9002801D11020ABE7606800F004F9BA
:10D20000002801D11020A4E7606881192A460198FE
:10D2100001F04EFB009514212068484348490F58FF
:10D22000002203212046019BB847002091E7F8B572
:10D2300004460D4600BF43480078002801D108206D
:10D24000F8BD00BF002C01D10E20F9E720680028AE
:10D2500006D114212068484339490858002801D1D3
:10D260000720EDE714212068484335494018C0687D
:10D27000142221685143324A89188968484314228C
:10D28000216851432E4A89184968401861688842CC
:10D2900001D80720D4E7606800F0B6F8002801D173
:10D2A0001020CDE7142722687A43254FD2196368EE
:10D2B0005268981A142322685A433B46D218916840
:10D2C00001F057FB002901D00720B9E700202B46C9
:10D2D0000246214600900420FFF7E6FB0646304652
:10D2E000AEE7014600BF17480078002801D10820AA
:10D2F000704700BF002901D10E20F9E7124840789D
:10D3000008600020F4E7024600BF0E4800780028BD
:10D3100001D10820704700BF002A01D10E20F9E793
:10D32000002901D10E20F5E71068002801D10E2058
:10D33000F0E70648006800280AD00420EAE7000069
:10D34000342600209420002040250020A820002022
:10D3500002200860304B106818600020DAE7F8B54A
:10D3600004460D4617461E4600BF2C48007800288C
:10D3700001D10820F8BD00BF002D01D10E20F9E732
:10D38000002C01D10E20F5E72068022803D12248A5
:10D390000068002801D10720ECE7284600F034F8A7
:10D3A000002804D0304600F02FF8002801D11020CA
:10D3B000E0E73B462A46214602200096FFF774FB31
:10D3C000D8E7F8B504460D4600BF14480078002899
:10D3D00001D10820F8BD00BF002C01D10E20F9E7D3
:10D3E0002068022803D10C480068002801D10720DA
:10D3F000F0E700202B460246214600900420FFF76C
:10D4000053FB06463046E5E701468807800F01D109
:10D41000012070470020FCE7A82000209420002075
:10D4200000206D4908706D486D490860082048600B
:10D4300000208860C86008614861886170470020EA
:10D4400070470246002A01D10E20704762480078DA
:10D45000002806D10120604B18706248106000213E
:10D4600000E004210846F0E700205B49087070479F
:10D4700030B50346002901D10E2030BD00200860E0
:10D4800057484068002824D0202B20D854484068B2
:10D49000401E534C60602046C068401CE06020463F
:10D4A0000468006924256843201808604C48806996
:10D4B0004B4C257C0124AC402043494CA0612046C4
:10D4C000007C401C4007400F2061002202E00C223B
:10D4D00000E004221046D0E730B50346404CA46873
:10D4E000002C39D010203E4C247D3D4D2D7A641BFC
:10D4F0006107490F0A4600BF394C256824244C4374
:10D500002C199C4208D1364CA46901258D406C40F1
:10D51000334DAC61002006E04C1C6107490F304CD4
:10D5200064698C42E8D100BF0BE02D4CA468641EF6
:10D530002B4DAC602C466468641C6C604C1C62070C
:10D54000520F274CA469012595402C4205D1244C4B
:10D55000A468002CE9D100E0042030BD0146204839
:10D56000007C401E4207520F1D4803682420504390
:10D57000181801620020704730B50246002A01D019
:10D58000002901D10E2030BD1548C06800281FD0E9
:10D590001348C068401E124CE06020468068401C62
:10D5A000A060204604684069242568432018106064
:10D5B0000B480468406968432018006A08600848FE
:10D5C000007D401C4007400F054C6061002300E0D7
:10D5D00004231846D7E70000B42000204826002086
:10D5E00068270020B0200020F8B504460D46002C26
:10D5F00016D0FE480088FE49884222D01321FB48FD
:10D60000008876DF064600BF3746002F06D000BFF1
:10D61000F8A270213846FCF76FFE00BF00BF10E093
:10D620002846FFF759FF064600BF3746002F06D0B1
:10D6300000BFF0A276213846FCF75EFE00BF00BFB7
:10D6400000BFF8BD0246082A0CD004DC002A07D02F
:10D65000062A13D108E00B2A0AD00C2A0ED105E0C5
:10D66000012070470220FCE70320FAE70420F8E7D6
:10D67000042901D10520F4E70620F2E70620F0E7AF
:10D68000F8B50546002D16D0D8480088D8498842FC
:10D6900029D01321D548008876DF064600BF3746DB
:10D6A000002F06D000BFD3A2B4213846FCF724FED9
:10D6B00000BF00BF17E001212046FFF7C3FF074668
:10D6C0003A460121D148FDF723FC044600BF264617
:10D6D000002E06D000BFC7A2C1213046FCF70CFEC9
:10D6E00000BF00BF00BFF8BDF8B506460C460321D9
:10D6F0002046FFF7A7FF07463A4603213046FDF7CD
:10D7000007FC044600BF2546002D06D000BFB9A285
:10D71000D8212846FCF7F0FD00BF00BFF8BDF3B5E7
:10D7200081B00D462879042811D0032201210198E7
:10D73000FDF7EEFB044600BF2646002E06D000BFD4
:10D74000ACA2EC213046FCF7D7FD00BF1DE0A86875
:10D750000178427812021143827812041143C27890
:10D76000120611430E463046FDF721F8044600BF6D
:10D770002746002F07D000BF9EA2FF210131384667
:10D78000FCF7BAFD00BF00BF00BFFEBDF3B585B01A
:10D790000C46002601200290A068049020798007A2
:10D7A000800F11D021798907890F0422561A002091
:10D7B00007E0002123791B189B00049AD150411CDB
:10D7C000C8B2B042F5DB00BF207980198008039011
:10D7D00002A8FDF764F8054602212846FFF732FF4C
:10D7E00001900221019A0598FDF792FB054600BFC2
:10D7F0002F46002F07D000BF7EA2FF2133313846CD
:10D80000FCF77AFD00BF00BF07B0F0BDF3B585B0EF
:10D810000D4628798007800F14D003221146059801
:10D82000FDF776FB044600BF2746002F07D000BF58
:10D8300070A2FF2148313846FCF75EFD00BF00BFF3
:10D8400007B0F0BD2879049071490498FFF710FEE5
:10D850000446002C04D021460598FFF745FFEFE76A
:10D86000AE6831466A48049A006801F021F80498CD
:10D87000FFF774FE0446002C04D021460598FFF7FC
:10D8800033FFDDE704A96248FFF776FE0446002C6B
:10D8900004D021460598FFF727FFD1E704988008B8
:10D8A0000290032001905A480068039001A8FCF7F9
:10D8B000ABFF0446002C18D1287956490988401836
:10D8C00054490880012203210598FDF721FB0446F5
:10D8D00000BF2746002F07D000BF46A2FF217831A6
:10D8E0003846FCF709FD00BF3CE0092C2AD1287915
:10D8F0004849098840184749088047480078002867
:10D9000030D046480088401E4449088008460088B8
:10D91000002827D13F4801880598FDF7C7FC044639
:10D9200000BF2746002F07D000BF32A2FF21893158
:10D930003846FCF7E1FC00BF00BF39480088374992
:10D9400008800FE032480068FFF7C6FD0746002F49
:10D9500003D039460598FFF7C7FE21460598FFF723
:10D96000C3FE00BF00BF6BE770B504460D462D48EF
:10D970000068012804D0022807D003280FD109E04D
:10D9800029462046FFF7CBFE0AE029462046FFF74E
:10D99000FDFE05E029462046FFF738FF00E000BF06
:10D9A00000BF70BD10B5044600BF12A2FF21C431F4
:10D9B0002046FCF7A1FC00BF10BD30B587B01C218C
:10D9C000684600F0D4FF0020009017480190012025
:10D9D000800302900321684601730021C181017414
:10D9E0000020059011480690684621E0BA200020EA
:10D9F000FFFF00002E2E5C6466755F7472616E73AB
:10DA0000706F72745F626C652E630000982700204F
:10DA1000D0200020C8200020B9200020CC200020E9
:10DA2000CA200020C4200020CD0C0000A5D903008E
:10DA300000F00DFB044600BF2546002D07D000BFB7
:10DA4000FB4AFF21DB312846FCF756FC00BF00BF34
:10DA500007B030BD70B5F7480078002814D074DFE7
:10DA6000044600BF2546002D06D000BFF04AF2490B
:10DA70002846FCF741FC00BF00BF082000F079FAFF
:10DA80000020EC49087000BF70BD70B5EB480088FD
:10DA9000EB49884210D01321E848008876DF04461D
:10DAA00000BF2546002D06D000BFE14AE5492846C3
:10DAB000FCF722FC00BF01E0FFF7CCFF00F0F4FA16
:10DAC000044600BF2546002D07D000BFD84A6B2171
:10DAD000C9002846FCF710FC00BF00BF002070BD45
:10DAE000F8B506460D462868030001F022F80A4DF5
:10DAF000515506223A5E68596E82FCF7FCFE0446D8
:10DB000004212046FFF79EFD009004213046009A34
:10DB1000FDF7FEF9044600BF2746002F07D000BFDF
:10DB2000C34AFF21F6313846FCF7E6FB00BF00BFD1
:10DB300060E0FFF7AAFF044600BF2746002F07D08A
:10DB400000BFBB4AFF21FC313846FCF7D5FB00BFC4
:10DB500000BFFCF705FF0446002C01D0FCF719FFBD
:10DB600048E0FFF792FF044600BF2746002F07D08A
:10DB700000BFAF4AB04947393846FCF7BDFB00BF8C
:10DB800000BFFCF706FF35E00120AF49086031E037
:10DB90000220AD4908602DE00320AB49086029E070
:10DBA00029463046FFF7E0FE24E00120A74908702F
:10DBB000A888A7490880A888A64908801AE00020FC
:10DBC000A2490870A249088014E0A34801883046A1
:10DBD000FDF71FFB044600BF2746002F07D000BFFC
:10DBE000934A954925393846FCF786FB00BF00BFAC
:10DBF00000E000BF00BFF8BD70B58E480078002877
:10DC000016D1964873DF044600BF2546002D07D085
:10DC100000BF874A8F2189002846FCF76DFB00BFB3
:10DC200000BF082000F0A0F901208249087000BF61
:10DC300070BD70B505462888132825D004DC10284F
:10DC400007D011285ED111E0522847D0552859D16C
:10DC50002EE0092000F088F9082000F08AF9A88851
:10DC6000764908800020734908704CE0092000F0D4
:10DC700080F97B480078002801D1FFF7BDFF002024
:10DC8000C0436E4908803EE0764A00216B48008818
:10DC90007FDF044600BF2646002E07D000BF644A3F
:10DCA00065492F313046FCF727FB00BF00BF2AE053
:10DCB000A879002811D113216048008876DF044636
:10DCC00000BF2646002E07D000BF594A5A493731B7
:10DCD0003046FCF711FB00BF00BF14E000221146E4
:10DCE00056480088A9DF044600BF2646002E07D00C
:10DCF00000BF4F4A50493D313046FCF7FDFA00BFA6
:10DD000000BF00E000BF00BF70BD10B50446204654
:10DD100000F071FA21465448FDF74EFA2046FFF70D
:10DD200088FF10BD10B5082000F015F9092000F09B
:10DD300012F90F2000F00FF910BD3EB500BF684684
:10DD4000007801090901491C009168460078F0211A
:10DD500088431030009000BF072244A168467CDF52
:10DD6000044600BF2546002D07D000BF304A324987
:10DD700073312846FCF7C0FA00BF00BF00200190B5
:10DD800002900921684681800C21C1800021018117
:10DD9000FF219131418101A87ADF044600BF254669
:10DDA000002D07D000BF224A23497D312846FCF7C9
:10DDB000A3FA00BF00BF3EBD30B591B0062100916F
:10DDC00029480179684681712A4981803C2102A84D
:10DDD00000F0CDFD02200290002168464173012130
:10DDE0000182694605910121818301A908910021E1
:10DDF00002A800F015FD044600BF2546002D07D0FF
:10DE000000BF0B4A0F4966392846FCF775FA00BF78
:10DE100000BF1421114800F0AAFD00200F4908702E
:10DE200048600872282008820020488211B030BD66
:10DE3000F4D90300BC2000204E020000BA200020CC
:10DE4000FFFF00004F030000C4200020B920002085
:10DE5000CA200020CC200020C820002084270020D9
:10DE6000B8200020BE20002098270020446675546A
:10DE7000617267003015000010B5044600BF3F4ACC
:10DE80003F492046FCF738FA00BF10BD7CB50020A2
:10DE9000009001903B4800903B48019069463B4808
:10DEA000FDF736F9044600BF2546002D07D000BF18
:10DEB000324A334913312846FCF71EFA00BF00BF2F
:10DEC0007CBD1E203249088008468078400840000A
:10DED000401C887008468078022188432C4988704D
:10DEE000084680781C2188430C30294988700846F0
:10DEF000807820218843264988700720C870102028
:10DF00000871704710B5002022490860FFF70AFF2A
:10DF10002148FEF7ABFB0446002C01D0204610BD83
:10DF20001E48FCF73EFC1E48FCF73EFCFFF778FA63
:10DF30000446002C01D02046F1E7FFF7FEFEFFF774
:10DF4000A5FFFFF739FFFFF738FDFFF7BAFFFFF72F
:10DF500053FE0020E3E703210522120707231B02DB
:10DF6000D2188300D1507047012181400D4A916041
:10DF70007047012181400B4AD1607047F4D90300FA
:10DF8000FF020000E1DA030079DE03009827002099
:10DF9000BE200020C42000200BDD0300E9D50300D3
:10DFA00081D603000005005001464888B74A128810
:10DFB000904206DB4888B54A5288904201DC012035
:10DFC00070470020FCE738B50546B1480088B149E4
:10DFD00088423BD0B0480078401CAF490870AF4839
:10DFE000007B097888420FDBA849A948008875DFC3
:10DFF0000446002C07D0A9488069002803D0A74810
:10E0000081692046884721E00020A3490870A34881
:10E01000007C00280FD03B219D48008876DF044615
:10E02000002C07D09D488069002803D09B48816957
:10E030002046884700BF99484069002806D0002044
:10E040000090964841696846884700BF38BD70B562
:10E0500005461C2229469148FCF79CF8002090496F
:10E060000870286800280BD008228848296800F02A
:10E070001FFC86487ADF0446002C08D0204670BD7D
:10E0800082487BDF0446002C01D02046F7E70020C1
:10E09000C0437F49088000207F490870814A0021E1
:10E0A0008148FDF7BCFDEAE710B57F480068FDF741
:10E0B0002EFE10BD38B57D48FFF776FF002829D128
:10E0C0007748007800280AD074484069002820D09A
:10E0D00000200090714841696846884719E06E4801
:10E0E0000078002802D16D48456801E06B488568DA
:10E0F000002229466C480068FDF7D8FD0446002C34
:10E1000007D066488069002803D0644881692046AA
:10E1100088470AE061484069002806D00120009045
:10E120005E4841696846884700BF00205C49087026
:10E1300038BD10B50446A0885549088008222146FC
:10E140000E315A4800F0B4FB002053490870534880
:10E15000C089002801D1FFF7ADFF10BD70B505469D
:10E160000020C0434A49088000204B4908704E48AF
:10E170000068FDF7CCFD0446002C07D047488069B5
:10E18000002803D0454881692046884770BD70B596
:10E190000546AC1D20884149C989884220D1208B81
:10E1A00002281DD100BF00BFA17EE27E12021143F2
:10E1B0000846C107C90F002902D0FFF77BFF0FE017
:10E1C00039480068FDF7A3FD0646002E07D0334806
:10E1D0008069002803D0314881693046884700BFF4
:10E1E00070BD10B504460822A11D304800F060FB48
:10E1F000FFF760FF10BD10B504462088102806D038
:10E20000112808D012280ED0502810D107E020463F
:10E21000FFF78FFF0CE02046FFF7A0FF08E0204645
:10E22000FFF7B5FF04E02046FFF7DBFF00E000BF8B
:10E2300000BF10BD38B5044608222146134800F03F
:10E2400037FB12487ADF0546002D1CD11748FFF72F
:10E25000ABFE00280BD10120114908700B490C4876
:10E26000008875DF054601200B4908700BE00B485C
:10E270004069002806D0012000900848416968469E
:10E28000884700BF0025284638BD0000D620002062
:10E29000E0200020FFFF0000DE200020C02700203B
:10E2A000D4200020C7DF0300EC200020E220002063
:10E2B000F7B584B004460F4606980678B01C1F28B0
:10E2C00003DC2079801C1F2802DD0C2007B0F0BD84
:10E2D0001F20801B801E85B20295B11C781802A9F0
:10E2E0007DDF03900398002801D00398EEE72068B3
:10E2F000022808D168460089A84204DC0920019060
:10E30000684605890BE0082001902079002804D098
:10E310002079A84201DC257901E068460589681C5E
:10E32000C2B23046711CCEB23A543046721CD6B2DC
:10E330000199395406980178A81C0818C1B20698AA
:10E3400001700020C2E7F8B505460C462078001D94
:10E350001F2801DD0C20F8BD684679DF0646002E37
:10E3600001D03046F7E703212278501C2070A954D1
:10E3700019212278501C2070A95420784119684630
:10E38000008800F08AFA2178401820700020E2E727
:10E39000F8B505460F4616461C466868002801D1A8
:10E3A0000720F8BD2078801C298840181F2801DD2F
:10E3B0000C20F6E72878401CC1B22278501C20704F
:10E3C000B1542178481C207077542A8823789819F2
:10E3D000696800F06DFA20782978401820700020D4
:10E3E000DFE730B503461078C01C1F2801DD0C2084
:10E3F00030BD02241578681C10704C550A2415781D
:10E40000681C10704C551578681C10704B55002016
:10E41000EEE7FFB587B006461D46109C002006902B
:10E4200020780590002747E0B900706841180A88F5
:10E430006846028149884181002203A902A865DF5C
:10E4400004900498002802D004980BB0F0BD6846F0
:10E45000017B099881422ED10698002801D0002026
:10E4600000E00220019020786946097B411801985C
:10E4700008181F2801DD0C20E7E70698002809D1BD
:10E480002078401C20702278511C08982170A854D4
:10E49000012006902078421903A902A865DF0490A4
:10E4A0000498002801D00498CFE720786946097BBA
:10E4B0004018207000BF7F1C3088B842B4DC06983A
:10E4C000002806D021780598401C081AC1B205988A
:10E4D00029540020B9E7FFB581B0074615460A9ECA
:10E4E000009602223846049B0299FFF792FF0446E9
:10E4F000002C02D0204605B0F0BD0096102229461F
:10E500003846049BFFF785FF0446002C01D02046C7
:10E51000F1E70020EFE701460888062808DB0888B5
:10E520001922D201904205DD0888E04A904201D0CC
:10E53000072070474888062808DB48881922D2013E
:10E54000904205DD4888D94A904201D00720F0E783
:10E550000888D64A904208D04888904205D008885A
:10E560004A88904201DD0720E3E70020E1E7F8B5A3
:10E5700006460D4614462078801D1F2801D90C2020
:10E58000F8BD3046FFF7C7FF0746002F01D03846D9
:10E59000F6E705212278501C2070A9541221227818
:10E5A000501C2070A95422785119308800F075F958
:10E5B00021784018207022785119708800F06DF988
:10E5C0002178401820700020DAE7F8B505460E469D
:10E5D00014462879801CC7B22078801CC0191F28D7
:10E5E00001DD0C20F8BD781CC1B22278501C2070CF
:10E5F000B154FF212278501C2070B1542278911917
:10E60000288800F04AF9217840182070A88800284E
:10E610000EDDA868002801D10720E3E7AA88237847
:10E620009819A96800F044F92078297940182070D9
:10E630000020D7E7FEB507460E461446786B002843
:10E6400001D10720FEBD0020019032E0796B0C2241
:10E65000019850430D182879801CC0B20090009892
:10E66000401CC1B22278501C2070B154162122786F
:10E67000501C2070B15422789119288800F00DF9AF
:10E68000217840182070A88800280EDDA86800288E
:10E6900001D10720D6E7AA8823789819A96800F045
:10E6A00007F920782979401820700198401CC0B2E1
:10E6B00001903820C15D01988142C7DC0020C1E78C
:10E6C000F8B504460F461646002500203070206835
:10E6D000002809D0324639462046FFF7E9FD0546B5
:10E6E000002D01D02846F8BD6079002808D03146B9
:10E6F0003846FFF728FE0546002D01D02846F2E7F0
:10E70000208900280BDD33463A4601212046083097
:10E71000FFF73EFE0546002D01D02846E3E72069BD
:10E7200000280BD000202169085632463946FFF7F1
:10E7300058FE0546002D01D02846D4E7A08A0028BF
:10E740000CDD3B4606220221204614300096FFF7DE
:10E75000C2FE0546002D01D02846C4E7A08B002844
:10E760000CDD3B460722032120461C300096FFF7B4
:10E77000B2FE0546002D01D02846B4E7A08C002843
:10E780000CDD3B4615221421204624300096FFF76D
:10E79000A2FE0546002D01D02846A4E7E06A002825
:10E7A00009D032463946E06AFFF7E1FE0546002D02
:10E7B00001D0284697E7206B002809D03246394619
:10E7C000206BFFF702FF0546002D01D028468AE79F
:10E7D0003820005D002809DD324639462046FFF723
:10E7E00029FF0546002D01D028467CE728467AE718
:10E7F00001460889002807D0C868002804D0C868E6
:10E8000000780422104201D1072070470020FCE765
:10E8100001460889002801DD072070470020FCE739
:10E82000F3B593B00D460021129111911398002871
:10E8300014D01398FFF7DCFF0446002C02D02046CA
:10E8400015B0F0BD12AA09A91398FFF739FF0446C5
:10E85000002C01D02046F3E709AE00E00026002D91
:10E8600013D02846FFF7D4FF0446002C01D02046E1
:10E87000E6E711AA01A92846FFF722FF0446002C6B
:10E8800001D02046DCE701AF00E0002710A80379A3
:10E890003A46017A304672DFD2E702460A70FF201C
:10E8A000000210400012487002207047FFFF000075
:10E8B000F8B5042A2CD3830712D00B78491C0370B7
:10E8C000401C521E83070BD00B78491C0370401C60
:10E8D000521E830704D00B78491C0370401C521E43
:10E8E0008B079B0F05D0C91ADF002023DE1B08C948
:10E8F0000AE0FBF74FFCF8BD1D4608C9FD401C4669
:10E90000B4402C4310C0121F042AF5D2F308C91AD0
:10E91000521EF0D40B78491C0370401C521EEAD4DE
:10E920000B78491C0370401C521EE4D40978017016
:10E93000F8BD01E004C0091F0429FBD28B0701D5F3
:10E940000280801CC90700D00270704700290BD0DC
:10E95000C30702D00270401C491E022904D383075A
:10E9600002D50280801C891EE3E70022EEE7002228
:10E97000DFE7002203098B422CD3030A8B4211D319
:10E9800000239C464EE003460B433CD40022430840
:10E990008B4231D303098B421CD3030A8B4201D330
:10E9A00094463FE0C3098B4201D3CB01C01A5241C8
:10E9B00083098B4201D38B01C01A524143098B4218
:10E9C00001D34B01C01A524103098B4201D30B0101
:10E9D000C01A5241C3088B4201D3CB00C01A524126
:10E9E00083088B4201D38B00C01A524143088B42EB
:10E9F00001D34B00C01A5241411A00D20146524184
:10EA0000104670475DE0CA0F00D04942031000D3A2
:10EA10004042534000229C4603098B422DD3030AF7
:10EA20008B4212D3FC22890112BA030A8B420CD307
:10EA3000890192118B4208D3890192118B4204D330
:10EA400089013AD0921100E08909C3098B4201D3B0
:10EA5000CB01C01A524183098B4201D38B01C01AEA
:10EA6000524143098B4201D34B01C01A5241030961
:10EA70008B4201D30B01C01A5241C3088B4201D310
:10EA8000CB00C01A524183088B4201D38B00C01ABD
:10EA90005241D9D243088B4201D34B00C01A524194
:10EAA000411A00D20146634652415B10104601D321
:10EAB0004042002B00D54942704763465B1000D3AB
:10EAC000404201B50020C046C04602BD70477047B5
:10EAD0007047754600F022F8AE4605006946534679
:10EAE000C008C000854618B020B5FBF7EFFB60BC3E
:10EAF00000274908B6460026C0C5C0C5C0C5C0C568
:10EB0000C0C5C0C5C0C5C0C5403D49008D467047A1
:10EB10000446C046C0462046FBF71FFB004870472E
:10EB2000DC27002001491820ABBEFEE726000200CA
:10EB3000704730B47446641E2578641CAB4204D31D
:10EB4000635D5B00E31830BC18471D46F8E7000022
:10EB500002000000000000000000000000000000B3
:10EB600023D1BCEA5F782315DEEF1212000000000B
:10EB700090EB030000200020F000000004A103003F
:10EB800080EC0300F02000205013000020A10300BF
:10EB90000024F4000000000000000000000000005D
:10EBA0000000000000000000000000000000000065
:10EBB0000000000000000000000000000000000055
:10EBC0000000000000000000000000000000000045
:10EBD0000000000000000000000000000000000035
:10EBE0000000000000000000000000000000000025
:10EBF0000000000000000000000000000000000015
:10EC00000000000000000000000000000000000004
:10EC100000000000000000000000000000000000F4
:10EC200000000000000000000000000000000000E4
:10EC300000000000000000000000000000000000D4
:10EC400000000000000000000000FFFF00000000C6
:10EC500000000000000000000000000000000000B4
:10EC600000000000000000000000000000000000A4
:10EC70000000000000000000000000000000000094
:020000041000EA
:0410140000A0030035
:040000050003A0C193
:00000001FF
